{
  "_format": "hh3-artifact-1",
  "contractName": "TokenFaucet",
  "sourceName": "contracts/TokenFaucet.sol",
  "abi": [
    {
      "inputs": [
        {
          "internalType": "address",
          "name": "tokenAddress",
          "type": "address"
        }
      ],
      "stateMutability": "nonpayable",
      "type": "constructor"
    },
    {
      "anonymous": false,
      "inputs": [
        {
          "indexed": true,
          "internalType": "address",
          "name": "receiver",
          "type": "address"
        },
        {
          "indexed": false,
          "internalType": "uint256",
          "name": "amount",
          "type": "uint256"
        }
      ],
      "name": "SendToken",
      "type": "event"
    },
    {
      "inputs": [],
      "name": "amountAllowed",
      "outputs": [
        {
          "internalType": "uint256",
          "name": "",
          "type": "uint256"
        }
      ],
      "stateMutability": "view",
      "type": "function"
    },
    {
      "inputs": [],
      "name": "requestTokens",
      "outputs": [],
      "stateMutability": "nonpayable",
      "type": "function"
    },
    {
      "inputs": [
        {
          "internalType": "address",
          "name": "",
          "type": "address"
        }
      ],
      "name": "requestedAddress",
      "outputs": [
        {
          "internalType": "bool",
          "name": "",
          "type": "bool"
        }
      ],
      "stateMutability": "view",
      "type": "function"
    },
    {
      "inputs": [],
      "name": "token",
      "outputs": [
        {
          "internalType": "contract IERC20",
          "name": "",
          "type": "address"
        }
      ],
      "stateMutability": "view",
      "type": "function"
    }
  ],
  "bytecode": "0x60a060405268056bc75e2d631000005f5534801561001b575f5ffd5b506040516108f23803806108f2833981810160405281019061003d91906100d5565b8073ffffffffffffffffffffffffffffffffffffffff1660808173ffffffffffffffffffffffffffffffffffffffff168152505050610100565b5f5ffd5b5f73ffffffffffffffffffffffffffffffffffffffff82169050919050565b5f6100a48261007b565b9050919050565b6100b48161009a565b81146100be575f5ffd5b50565b5f815190506100cf816100ab565b92915050565b5f602082840312156100ea576100e9610077565b5b5f6100f7848285016100c1565b91505092915050565b6080516107cc6101265f395f81816101520152818161028001526103d201526107cc5ff3fe608060405234801561000f575f5ffd5b506004361061004a575f3560e01c8063359cf2b71461004e5780635e33dba9146100585780639ad2cd1414610088578063fc0c546a146100a6575b5f5ffd5b6100566100c4565b005b610072600480360381019061006d9190610452565b6103ae565b60405161007f9190610497565b60405180910390f35b6100906103cb565b60405161009d91906104c8565b60405180910390f35b6100ae6103d0565b6040516100bb919061053c565b60405180910390f35b60015f3373ffffffffffffffffffffffffffffffffffffffff1673ffffffffffffffffffffffffffffffffffffffff1681526020019081526020015f205f9054906101000a900460ff161561014e576040517f08c379a0000000000000000000000000000000000000000000000000000000008152600401610145906105af565b60405180910390fd5b5f547f000000000000000000000000000000000000000000000000000000000000000073ffffffffffffffffffffffffffffffffffffffff166370a08231306040518263ffffffff1660e01b81526004016101a991906105dc565b602060405180830381865afa1580156101c4573d5f5f3e3d5ffd5b505050506040513d601f19601f820116820180604052508101906101e8919061061f565b1015610229576040517f08c379a000000000000000000000000000000000000000000000000000000000815260040161022090610694565b60405180910390fd5b6001805f3373ffffffffffffffffffffffffffffffffffffffff1673ffffffffffffffffffffffffffffffffffffffff1681526020019081526020015f205f6101000a81548160ff0219169083151502179055505f7f000000000000000000000000000000000000000000000000000000000000000073ffffffffffffffffffffffffffffffffffffffff1663a9059cbb335f546040518363ffffffff1660e01b81526004016102da9291906106b2565b6020604051808303815f875af11580156102f6573d5f5f3e3d5ffd5b505050506040513d601f19601f8201168201806040525081019061031a9190610703565b90508061035c576040517f08c379a000000000000000000000000000000000000000000000000000000000815260040161035390610778565b60405180910390fd5b3373ffffffffffffffffffffffffffffffffffffffff167f916800025d85907d1e91e112659a8e7e77a17ea4de231b05f15bb381d3bfde615f546040516103a391906104c8565b60405180910390a250565b6001602052805f5260405f205f915054906101000a900460ff1681565b5f5481565b7f000000000000000000000000000000000000000000000000000000000000000081565b5f5ffd5b5f73ffffffffffffffffffffffffffffffffffffffff82169050919050565b5f610421826103f8565b9050919050565b61043181610417565b811461043b575f5ffd5b50565b5f8135905061044c81610428565b92915050565b5f60208284031215610467576104666103f4565b5b5f6104748482850161043e565b91505092915050565b5f8115159050919050565b6104918161047d565b82525050565b5f6020820190506104aa5f830184610488565b92915050565b5f819050919050565b6104c2816104b0565b82525050565b5f6020820190506104db5f8301846104b9565b92915050565b5f819050919050565b5f6105046104ff6104fa846103f8565b6104e1565b6103f8565b9050919050565b5f610515826104ea565b9050919050565b5f6105268261050b565b9050919050565b6105368161051c565b82525050565b5f60208201905061054f5f83018461052d565b92915050565b5f82825260208201905092915050565b7f43616e27742072657175657374206d756c7469706c652074696d6573000000005f82015250565b5f610599601c83610555565b91506105a482610565565b602082019050919050565b5f6020820190508181035f8301526105c68161058d565b9050919050565b6105d681610417565b82525050565b5f6020820190506105ef5f8301846105cd565b92915050565b6105fe816104b0565b8114610608575f5ffd5b50565b5f81519050610619816105f5565b92915050565b5f60208284031215610634576106336103f4565b5b5f6106418482850161060b565b91505092915050565b7f46617563657420656d70747900000000000000000000000000000000000000005f82015250565b5f61067e600c83610555565b91506106898261064a565b602082019050919050565b5f6020820190508181035f8301526106ab81610672565b9050919050565b5f6040820190506106c55f8301856105cd565b6106d260208301846104b9565b9392505050565b6106e28161047d565b81146106ec575f5ffd5b50565b5f815190506106fd816106d9565b92915050565b5f60208284031215610718576107176103f4565b5b5f610725848285016106ef565b91505092915050565b7f5472616e73666572206661696c656400000000000000000000000000000000005f82015250565b5f610762600f83610555565b915061076d8261072e565b602082019050919050565b5f6020820190508181035f83015261078f81610756565b905091905056fea26469706673582212205258921ec9316d30878ad9bc3507bcbfa4d2a218edd5c53330752f81ff6d968f64736f6c634300081c0033",
  "linkReferences": {},
  "deployedLinkReferences": {},
  "immutableReferences": {
    "822": [
      {
        "length": 32,
        "start": 338
      },
      {
        "length": 32,
        "start": 640
      },
      {
        "length": 32,
        "start": 978
      }
    ]
  },
  "inputSourceName": "project/contracts/TokenFaucet.sol",
  "buildInfoId": "solc-0_8_28-8647471dec1113e1a3b0a213fcc657c27c931ff9"
}